{
  "_format": "hh-sol-artifact-1",
  "contractName": "WidgetsFactory",
  "sourceName": "contracts/WidgetsFactory.sol",
  "abi": [
    {
      "inputs": [],
      "stateMutability": "nonpayable",
      "type": "constructor"
    },
    {
      "anonymous": false,
      "inputs": [
        {
          "indexed": true,
          "internalType": "address",
          "name": "owner",
          "type": "address"
        },
        {
          "indexed": true,
          "internalType": "address",
          "name": "spender",
          "type": "address"
        },
        {
          "indexed": false,
          "internalType": "uint256",
          "name": "value",
          "type": "uint256"
        }
      ],
      "name": "Approval",
      "type": "event"
    },
    {
      "anonymous": false,
      "inputs": [
        {
          "indexed": true,
          "internalType": "address",
          "name": "previousOwner",
          "type": "address"
        },
        {
          "indexed": true,
          "internalType": "address",
          "name": "newOwner",
          "type": "address"
        }
      ],
      "name": "OwnershipTransferred",
      "type": "event"
    },
    {
      "anonymous": false,
      "inputs": [
        {
          "indexed": true,
          "internalType": "address",
          "name": "from",
          "type": "address"
        },
        {
          "indexed": true,
          "internalType": "address",
          "name": "to",
          "type": "address"
        },
        {
          "indexed": false,
          "internalType": "uint256",
          "name": "value",
          "type": "uint256"
        }
      ],
      "name": "Transfer",
      "type": "event"
    },
    {
      "inputs": [
        {
          "internalType": "address",
          "name": "recipient",
          "type": "address"
        },
        {
          "internalType": "uint256",
          "name": "amount",
          "type": "uint256"
        }
      ],
      "name": "InventoryManagement",
      "outputs": [],
      "stateMutability": "nonpayable",
      "type": "function"
    },
    {
      "inputs": [
        {
          "internalType": "address",
          "name": "orderor",
          "type": "address"
        },
        {
          "internalType": "uint256",
          "name": "amount",
          "type": "uint256"
        }
      ],
      "name": "OrderPurchase",
      "outputs": [],
      "stateMutability": "payable",
      "type": "function"
    },
    {
      "inputs": [],
      "name": "OrderShip",
      "outputs": [],
      "stateMutability": "nonpayable",
      "type": "function"
    },
    {
      "inputs": [
        {
          "internalType": "uint256",
          "name": "",
          "type": "uint256"
        }
      ],
      "name": "_acceptedOrder",
      "outputs": [
        {
          "internalType": "address",
          "name": "",
          "type": "address"
        }
      ],
      "stateMutability": "view",
      "type": "function"
    },
    {
      "inputs": [
        {
          "internalType": "address",
          "name": "",
          "type": "address"
        }
      ],
      "name": "_acceptedShip",
      "outputs": [
        {
          "internalType": "uint256",
          "name": "",
          "type": "uint256"
        }
      ],
      "stateMutability": "view",
      "type": "function"
    },
    {
      "inputs": [
        {
          "internalType": "address",
          "name": "user",
          "type": "address"
        }
      ],
      "name": "_addManager",
      "outputs": [],
      "stateMutability": "nonpayable",
      "type": "function"
    },
    {
      "inputs": [],
      "name": "_currentOrderId",
      "outputs": [
        {
          "internalType": "uint256",
          "name": "",
          "type": "uint256"
        }
      ],
      "stateMutability": "view",
      "type": "function"
    },
    {
      "inputs": [
        {
          "internalType": "address",
          "name": "user",
          "type": "address"
        }
      ],
      "name": "_deleteManager",
      "outputs": [],
      "stateMutability": "nonpayable",
      "type": "function"
    },
    {
      "inputs": [],
      "name": "_getAmount",
      "outputs": [
        {
          "internalType": "uint256",
          "name": "",
          "type": "uint256"
        }
      ],
      "stateMutability": "view",
      "type": "function"
    },
    {
      "inputs": [],
      "name": "_lastShipedOrder",
      "outputs": [
        {
          "internalType": "uint256",
          "name": "",
          "type": "uint256"
        }
      ],
      "stateMutability": "view",
      "type": "function"
    },
    {
      "inputs": [
        {
          "internalType": "address",
          "name": "",
          "type": "address"
        }
      ],
      "name": "_managers",
      "outputs": [
        {
          "internalType": "bool",
          "name": "",
          "type": "bool"
        }
      ],
      "stateMutability": "view",
      "type": "function"
    },
    {
      "inputs": [
        {
          "internalType": "uint256",
          "name": "",
          "type": "uint256"
        }
      ],
      "name": "_shipedOrder",
      "outputs": [
        {
          "internalType": "address",
          "name": "",
          "type": "address"
        }
      ],
      "stateMutability": "view",
      "type": "function"
    },
    {
      "inputs": [
        {
          "internalType": "address",
          "name": "owner",
          "type": "address"
        },
        {
          "internalType": "address",
          "name": "spender",
          "type": "address"
        }
      ],
      "name": "allowance",
      "outputs": [
        {
          "internalType": "uint256",
          "name": "",
          "type": "uint256"
        }
      ],
      "stateMutability": "view",
      "type": "function"
    },
    {
      "inputs": [
        {
          "internalType": "address",
          "name": "spender",
          "type": "address"
        },
        {
          "internalType": "uint256",
          "name": "amount",
          "type": "uint256"
        }
      ],
      "name": "approve",
      "outputs": [
        {
          "internalType": "bool",
          "name": "",
          "type": "bool"
        }
      ],
      "stateMutability": "nonpayable",
      "type": "function"
    },
    {
      "inputs": [
        {
          "internalType": "address",
          "name": "account",
          "type": "address"
        }
      ],
      "name": "balanceOf",
      "outputs": [
        {
          "internalType": "uint256",
          "name": "",
          "type": "uint256"
        }
      ],
      "stateMutability": "view",
      "type": "function"
    },
    {
      "inputs": [],
      "name": "decimals",
      "outputs": [
        {
          "internalType": "uint8",
          "name": "",
          "type": "uint8"
        }
      ],
      "stateMutability": "view",
      "type": "function"
    },
    {
      "inputs": [
        {
          "internalType": "address",
          "name": "spender",
          "type": "address"
        },
        {
          "internalType": "uint256",
          "name": "subtractedValue",
          "type": "uint256"
        }
      ],
      "name": "decreaseAllowance",
      "outputs": [
        {
          "internalType": "bool",
          "name": "",
          "type": "bool"
        }
      ],
      "stateMutability": "nonpayable",
      "type": "function"
    },
    {
      "inputs": [
        {
          "internalType": "address",
          "name": "spender",
          "type": "address"
        },
        {
          "internalType": "uint256",
          "name": "addedValue",
          "type": "uint256"
        }
      ],
      "name": "increaseAllowance",
      "outputs": [
        {
          "internalType": "bool",
          "name": "",
          "type": "bool"
        }
      ],
      "stateMutability": "nonpayable",
      "type": "function"
    },
    {
      "inputs": [],
      "name": "name",
      "outputs": [
        {
          "internalType": "string",
          "name": "",
          "type": "string"
        }
      ],
      "stateMutability": "view",
      "type": "function"
    },
    {
      "inputs": [],
      "name": "owner",
      "outputs": [
        {
          "internalType": "address",
          "name": "",
          "type": "address"
        }
      ],
      "stateMutability": "view",
      "type": "function"
    },
    {
      "inputs": [],
      "name": "renounceOwnership",
      "outputs": [],
      "stateMutability": "nonpayable",
      "type": "function"
    },
    {
      "inputs": [],
      "name": "symbol",
      "outputs": [
        {
          "internalType": "string",
          "name": "",
          "type": "string"
        }
      ],
      "stateMutability": "view",
      "type": "function"
    },
    {
      "inputs": [],
      "name": "totalSupply",
      "outputs": [
        {
          "internalType": "uint256",
          "name": "",
          "type": "uint256"
        }
      ],
      "stateMutability": "view",
      "type": "function"
    },
    {
      "inputs": [
        {
          "internalType": "address",
          "name": "to",
          "type": "address"
        },
        {
          "internalType": "uint256",
          "name": "amount",
          "type": "uint256"
        }
      ],
      "name": "transfer",
      "outputs": [
        {
          "internalType": "bool",
          "name": "",
          "type": "bool"
        }
      ],
      "stateMutability": "nonpayable",
      "type": "function"
    },
    {
      "inputs": [
        {
          "internalType": "address",
          "name": "from",
          "type": "address"
        },
        {
          "internalType": "address",
          "name": "to",
          "type": "address"
        },
        {
          "internalType": "uint256",
          "name": "amount",
          "type": "uint256"
        }
      ],
      "name": "transferFrom",
      "outputs": [
        {
          "internalType": "bool",
          "name": "",
          "type": "bool"
        }
      ],
      "stateMutability": "nonpayable",
      "type": "function"
    },
    {
      "inputs": [
        {
          "internalType": "address",
          "name": "newOwner",
          "type": "address"
        }
      ],
      "name": "transferOwnership",
      "outputs": [],
      "stateMutability": "nonpayable",
      "type": "function"
    }
  ],
  "bytecode": "0x60806040526000600b556000600c553480156200001b57600080fd5b50604080518082018252600e81526d57696467657473466163746f727960901b6020808301918252835180850190945260078452665769646765747360c81b908401528151919291620000719160039162000199565b5080516200008790600490602084019062000199565b505050620000a46200009e620000b560201b60201c565b620000b9565b620000af336200010b565b620002b1565b3390565b600580546001600160a01b038381166001600160a01b0319831681179093556040519116919082907f8be0079c531659141344cd1fd0a4f28419497f9722a3daafe3b4186f6b6457e090600090a35050565b6200011562000139565b6001600160a01b03166000908152600660205260409020805460ff19166001179055565b62000143620000b5565b6001600160a01b0316620001566200018a565b6001600160a01b031614620001885760405162461bcd60e51b81526004016200017f906200023f565b60405180910390fd5b565b6005546001600160a01b031690565b828054620001a79062000274565b90600052602060002090601f016020900481019282620001cb576000855562000216565b82601f10620001e657805160ff191683800117855562000216565b8280016001018555821562000216579182015b8281111562000216578251825591602001919060010190620001f9565b506200022492915062000228565b5090565b5b8082111562000224576000815560010162000229565b6020808252818101527f4f776e61626c653a2063616c6c6572206973206e6f7420746865206f776e6572604082015260600190565b6002810460018216806200028957607f821691505b60208210811415620002ab57634e487b7160e01b600052602260045260246000fd5b50919050565b61139d80620002c16000396000f3fe6080604052600436106101815760003560e01c806395d89b41116100d1578063d92025f31161008a578063e3aba7ee11610064578063e3aba7ee14610424578063f2fde38b14610444578063f4d241cb14610464578063f8a661321461048457610181565b8063d92025f3146103cf578063da5fa890146103e4578063dd62ed3e1461040457610181565b806395d89b4114610325578063a457c2d71461033a578063a52be0bd1461035a578063a9059cbb1461037a578063b01cbf581461039a578063d5d31abe146103af57610181565b8063313ce5671161013e578063453ec0be11610118578063453ec0be146102c457806370a08231146102d9578063715018a6146102f95780638da5cb5b1461031057610181565b8063313ce5671461026d578063395093511461028f5780633d13c33b146102af57610181565b806306fdde0314610186578063095ea7b3146101b157806312038f8c146101de57806318160ddd1461020b57806323b872dd146102205780632d5d93d414610240575b600080fd5b34801561019257600080fd5b5061019b610497565b6040516101a89190610e6f565b60405180910390f35b3480156101bd57600080fd5b506101d16101cc366004610e0f565b610529565b6040516101a89190610e64565b3480156101ea57600080fd5b506101fe6101f9366004610d81565b61054b565b6040516101a89190611296565b34801561021757600080fd5b506101fe61055d565b34801561022c57600080fd5b506101d161023b366004610dd4565b610563565b34801561024c57600080fd5b5061026061025b366004610e38565b610591565b6040516101a89190610e50565b34801561027957600080fd5b506102826105ac565b6040516101a8919061129f565b34801561029b57600080fd5b506101d16102aa366004610e0f565b6105b1565b3480156102bb57600080fd5b506101fe6105dd565b3480156102d057600080fd5b506101fe6105e3565b3480156102e557600080fd5b506101fe6102f4366004610d81565b6105e9565b34801561030557600080fd5b5061030e610608565b005b34801561031c57600080fd5b5061026061061c565b34801561033157600080fd5b5061019b61062b565b34801561034657600080fd5b506101d1610355366004610e0f565b61063a565b34801561036657600080fd5b50610260610375366004610e38565b61068b565b34801561038657600080fd5b506101d1610395366004610e0f565b6106a6565b3480156103a657600080fd5b5061030e6106be565b3480156103bb57600080fd5b506101d16103ca366004610d81565b61079f565b3480156103db57600080fd5b506101fe6107b4565b3480156103f057600080fd5b5061030e6103ff366004610d81565b6107ba565b34801561041057600080fd5b506101fe61041f366004610da2565b6107e6565b34801561043057600080fd5b5061030e61043f366004610e0f565b610811565b34801561045057600080fd5b5061030e61045f366004610d81565b610890565b34801561047057600080fd5b5061030e61047f366004610d81565b6108c7565b61030e610492366004610e0f565b6108f0565b6060600380546104a6906112fb565b80601f01602080910402602001604051908101604052809291908181526020018280546104d2906112fb565b801561051f5780601f106104f45761010080835404028352916020019161051f565b820191906000526020600020905b81548152906001019060200180831161050257829003601f168201915b5050505050905090565b6000806105346109ea565b90506105418185856109ee565b5060019392505050565b60096020526000908152604090205481565b60025490565b60008061056e6109ea565b905061057b858285610aa2565b610586858585610aec565b506001949350505050565b6008602052600090815260409020546001600160a01b031681565b601290565b6000806105bc6109ea565b90506105418185856105ce85896107e6565b6105d891906112ad565b6109ee565b60075490565b600c5481565b6001600160a01b0381166000908152602081905260409020545b919050565b610610610c10565b61061a6000610c4f565b565b6005546001600160a01b031690565b6060600480546104a6906112fb565b6000806106456109ea565b9050600061065382866107e6565b90508381101561067e5760405162461bcd60e51b81526004016106759061121a565b60405180910390fd5b61058682868684036109ee565b600a602052600090815260409020546001600160a01b031681565b6000806106b16109ea565b9050610541818585610aec565b3360009081526006602052604090205460ff1615156001146106f25760405162461bcd60e51b81526004016106759061111a565b6000600b54600c5461070491906112e4565b9050801561079c5760005b8181101561079a57600b8054600090815260086020818152604080842054600a835281852080546001600160a01b0319166001600160a01b0392831617905594548452918152818320549093168083526009909352902054610772913091610aec565b600b805490600061078283611336565b9190505550808061079290611336565b91505061070f565b505b50565b60066020526000908152604090205460ff1681565b600b5481565b6107c2610c10565b6001600160a01b03166000908152600660205260409020805460ff19166001179055565b6001600160a01b03918216600090815260016020908152604080832093909416825291909152205490565b6001600160a01b03821660009081526006602052604090205460ff16151560011461084e5760405162461bcd60e51b8152600401610675906111d1565b6000811161086e5760405162461bcd60e51b8152600401610675906110d4565b806007600082825461088091906112ad565b9091555061079a90503082610ca1565b610898610c10565b6001600160a01b0381166108be5760405162461bcd60e51b815260040161067590610f6b565b61079c81610c4f565b6108cf610c10565b6001600160a01b03166000908152600660205260409020805460ff19169055565b6001600160a01b03821660009081526006602052604090205460ff16156109295760405162461bcd60e51b815260040161067590610f05565b806109326105dd565b1161094f5760405162461bcd60e51b8152600401610675906110a5565b61096081662386f26fc100006112c5565b341161097e5760405162461bcd60e51b815260040161067590610f3c565b600c54600090815260086020908152604080832080546001600160a01b0319166001600160a01b038716908117909155835260099091528120829055600780548392906109cc9084906112e4565b9091555050600c80549060006109e183611336565b91905055505050565b3390565b6001600160a01b038316610a145760405162461bcd60e51b81526004016106759061118d565b6001600160a01b038216610a3a5760405162461bcd60e51b815260040161067590610fb1565b6001600160a01b0380841660008181526001602090815260408083209487168084529490915290819020849055517f8c5be1e5ebec7d5bd14f71427d1e84f3dd0314c0f7b2291e5b200ac8c7c3b92590610a95908590611296565b60405180910390a3505050565b6000610aae84846107e6565b90506000198114610ae65781811015610ad95760405162461bcd60e51b815260040161067590610ff3565b610ae684848484036109ee565b50505050565b6001600160a01b038316610b125760405162461bcd60e51b815260040161067590611148565b6001600160a01b038216610b385760405162461bcd60e51b815260040161067590610ec2565b610b43838383610d65565b6001600160a01b03831660009081526020819052604090205481811015610b7c5760405162461bcd60e51b81526004016106759061102a565b6001600160a01b03808516600090815260208190526040808220858503905591851681529081208054849290610bb39084906112ad565b92505081905550826001600160a01b0316846001600160a01b03167fddf252ad1be2c89b69c2b068fc378daa952ba7f163c4a11628f55a4df523b3ef84604051610bfd9190611296565b60405180910390a3610ae6848484610d65565b610c186109ea565b6001600160a01b0316610c2961061c565b6001600160a01b03161461061a5760405162461bcd60e51b815260040161067590611070565b600580546001600160a01b038381166001600160a01b0319831681179093556040519116919082907f8be0079c531659141344cd1fd0a4f28419497f9722a3daafe3b4186f6b6457e090600090a35050565b6001600160a01b038216610cc75760405162461bcd60e51b81526004016106759061125f565b610cd360008383610d65565b8060026000828254610ce591906112ad565b90915550506001600160a01b03821660009081526020819052604081208054839290610d129084906112ad565b90915550506040516001600160a01b038316906000907fddf252ad1be2c89b69c2b068fc378daa952ba7f163c4a11628f55a4df523b3ef90610d55908590611296565b60405180910390a361079a600083835b505050565b80356001600160a01b038116811461060357600080fd5b600060208284031215610d92578081fd5b610d9b82610d6a565b9392505050565b60008060408385031215610db4578081fd5b610dbd83610d6a565b9150610dcb60208401610d6a565b90509250929050565b600080600060608486031215610de8578081fd5b610df184610d6a565b9250610dff60208501610d6a565b9150604084013590509250925092565b60008060408385031215610e21578182fd5b610e2a83610d6a565b946020939093013593505050565b600060208284031215610e49578081fd5b5035919050565b6001600160a01b0391909116815260200190565b901515815260200190565b6000602080835283518082850152825b81811015610e9b57858101830151858201604001528201610e7f565b81811115610eac5783604083870101525b50601f01601f1916929092016040019392505050565b60208082526023908201527f45524332303a207472616e7366657220746f20746865207a65726f206164647260408201526265737360e81b606082015260800190565b6020808252601d908201527f4f726465726f722073686f756c64206e6f74206265206d616e61676572000000604082015260600190565b6020808252601590820152744e6f74206861766520656e6f7567682066756e647360581b604082015260600190565b60208082526026908201527f4f776e61626c653a206e6577206f776e657220697320746865207a65726f206160408201526564647265737360d01b606082015260800190565b60208082526022908201527f45524332303a20617070726f766520746f20746865207a65726f206164647265604082015261737360f01b606082015260800190565b6020808252601d908201527f45524332303a20696e73756666696369656e7420616c6c6f77616e6365000000604082015260600190565b60208082526026908201527f45524332303a207472616e7366657220616d6f756e7420657863656564732062604082015265616c616e636560d01b606082015260800190565b6020808252818101527f4f776e61626c653a2063616c6c6572206973206e6f7420746865206f776e6572604082015260600190565b6020808252601590820152744e6f74206861766520656e6f7567682073746f636b60581b604082015260600190565b60208082526026908201527f54686520666163746f727920686173206e6f742070726f6475636564207468656040820152652073746f636b60d01b606082015260800190565b60208082526014908201527324ba1039b437bab6321031329036b0b730b3b2b960611b604082015260600190565b60208082526025908201527f45524332303a207472616e736665722066726f6d20746865207a65726f206164604082015264647265737360d81b606082015260800190565b60208082526024908201527f45524332303a20617070726f76652066726f6d20746865207a65726f206164646040820152637265737360e01b606082015260800190565b60208082526029908201527f437573746f6d65722063616e206e6f7420616c7465722073746f636b20696e20604082015268696e76656e746f727960b81b606082015260800190565b60208082526025908201527f45524332303a2064656372656173656420616c6c6f77616e63652062656c6f77604082015264207a65726f60d81b606082015260800190565b6020808252601f908201527f45524332303a206d696e7420746f20746865207a65726f206164647265737300604082015260600190565b90815260200190565b60ff91909116815260200190565b600082198211156112c0576112c0611351565b500190565b60008160001904831182151516156112df576112df611351565b500290565b6000828210156112f6576112f6611351565b500390565b60028104600182168061130f57607f821691505b6020821081141561133057634e487b7160e01b600052602260045260246000fd5b50919050565b600060001982141561134a5761134a611351565b5060010190565b634e487b7160e01b600052601160045260246000fdfea26469706673582212200a8c0a02f581ced641ac3d13b05042155083b9dda60e666698422ca1f3d6fe6164736f6c63430008000033",
  "linkReferences": {},
  "deployedLinkReferences": {}
}